{
	"data": {
		"bytecode": {
			"linkReferences": {},
			"object": "60806040526127106000556040518060600160405280606460ff168152602001603260ff168152602001606460ff1681525060019060036100419291906101c6565b506040518060600160405280600160ff168152602001600160ff168152602001601460ff1681525060049060036100799291906101c6565b506040518060600160405280600060ff168152602001603260ff168152602001606460ff1681525060079060036100b19291906101c6565b50604051806101e00160405280601460ff168152602001600a60ff168152602001600f60ff168152602001600560ff168152602001600560ff168152602001600560ff168152602001600560ff168152602001600560ff168152602001600560ff168152602001600560ff168152602001600660ff168152602001600660ff168152602001600660ff168152602001600660ff168152602001600660ff16815250600a90600f61016292919061020b565b5060086019556005601a556005601b556002601c556001601d60006101000a81548160ff0219169083151502179055506001601d60016101000a81548160ff02191690831515021790555062278d00601e553480156101c057600080fd5b50610275565b82600381019282156101fa579160200282015b828111156101f9578251829060ff169055916020019190600101906101d9565b5b5090506102079190610250565b5090565b82600f810192821561023f579160200282015b8281111561023e578251829060ff1690559160200191906001019061021e565b5b50905061024c9190610250565b5090565b61027291905b8082111561026e576000816000905550600101610256565b5090565b90565b61056e806102846000396000f3fe608060405234801561001057600080fd5b50600436106101375760003560e01c806347703bbf116100b857806393eea5fb1161007c57806393eea5fb146103765780639b52b0e214610398578063b1c2340a146103b6578063bdb3d2da146103f8578063bdc0092d14610416578063ddaa26ad1461043857610137565b806347703bbf146102e057806353d0f255146102fe578063779133221461031c578063847ce75f1461033a578063863e76db1461035857610137565b80632a5414c7116100ff5780632a5414c71461021a5780632ecdbacc14610238578063342adbaf1461027a578063354852e81461029e5780633fd90955146102c257610137565b80630828f8af1461013c5780631810847c1461017e57806319c099531461019c5780631f7d6e40146101ba5780632152d77e146101d8575b600080fd5b6101686004803603602081101561015257600080fd5b8101908080359060200190929190505050610456565b6040518082815260200191505060405180910390f35b61018661046e565b6040518082815260200191505060405180910390f35b6101a4610473565b6040518082815260200191505060405180910390f35b6101c2610479565b6040518082815260200191505060405180910390f35b610204600480360360208110156101ee57600080fd5b8101908080359060200190929190505050610480565b6040518082815260200191505060405180910390f35b610222610498565b6040518082815260200191505060405180910390f35b6102646004803603602081101561024e57600080fd5b810190808035906020019092919050505061049e565b6040518082815260200191505060405180910390f35b6102826104b6565b604051808260ff1660ff16815260200191505060405180910390f35b6102a66104bb565b604051808260ff1660ff16815260200191505060405180910390f35b6102ca6104c0565b6040518082815260200191505060405180910390f35b6102e86104c6565b6040518082815260200191505060405180910390f35b6103066104ce565b6040518082815260200191505060405180910390f35b6103246104d4565b6040518082815260200191505060405180910390f35b6103426104da565b6040518082815260200191505060405180910390f35b6103606104e0565b6040518082815260200191505060405180910390f35b61037e6104e7565b604051808215151515815260200191505060405180910390f35b6103a06104fa565b6040518082815260200191505060405180910390f35b6103e2600480360360208110156103cc57600080fd5b8101908080359060200190929190505050610500565b6040518082815260200191505060405180910390f35b610400610518565b6040518082815260200191505060405180910390f35b61041e61051e565b604051808215151515815260200191505060405180910390f35b610440610531565b6040518082815260200191505060405180910390f35b6007816003811061046357fe5b016000915090505481565b606481565b601c5481565b620186a081565b600a81600f811061048d57fe5b016000915090505481565b60195481565b600481600381106104ab57fe5b016000915090505481565b602181565b600381565b601a5481565b635fd1650081565b61138881565b61384081565b601e5481565b6201518081565b601d60009054906101000a900460ff1681565b601b5481565b6001816003811061050d57fe5b016000915090505481565b60005481565b601d60019054906101000a900460ff1681565b635fd165008156fea265627a7a723158206695e2ce64224f1c2ee5453411723ac21b8f05e5d1c3f305dfbc1ccab4fa378a64736f6c634300050f0032",
			"opcodes": "PUSH1 0x80 PUSH1 0x40 MSTORE PUSH2 0x2710 PUSH1 0x0 SSTORE PUSH1 0x40 MLOAD DUP1 PUSH1 0x60 ADD PUSH1 0x40 MSTORE DUP1 PUSH1 0x64 PUSH1 0xFF AND DUP2 MSTORE PUSH1 0x20 ADD PUSH1 0x32 PUSH1 0xFF AND DUP2 MSTORE PUSH1 0x20 ADD PUSH1 0x64 PUSH1 0xFF AND DUP2 MSTORE POP PUSH1 0x1 SWAP1 PUSH1 0x3 PUSH2 0x41 SWAP3 SWAP2 SWAP1 PUSH2 0x1C6 JUMP JUMPDEST POP PUSH1 0x40 MLOAD DUP1 PUSH1 0x60 ADD PUSH1 0x40 MSTORE DUP1 PUSH1 0x1 PUSH1 0xFF AND DUP2 MSTORE PUSH1 0x20 ADD PUSH1 0x1 PUSH1 0xFF AND DUP2 MSTORE PUSH1 0x20 ADD PUSH1 0x14 PUSH1 0xFF AND DUP2 MSTORE POP PUSH1 0x4 SWAP1 PUSH1 0x3 PUSH2 0x79 SWAP3 SWAP2 SWAP1 PUSH2 0x1C6 JUMP JUMPDEST POP PUSH1 0x40 MLOAD DUP1 PUSH1 0x60 ADD PUSH1 0x40 MSTORE DUP1 PUSH1 0x0 PUSH1 0xFF AND DUP2 MSTORE PUSH1 0x20 ADD PUSH1 0x32 PUSH1 0xFF AND DUP2 MSTORE PUSH1 0x20 ADD PUSH1 0x64 PUSH1 0xFF AND DUP2 MSTORE POP PUSH1 0x7 SWAP1 PUSH1 0x3 PUSH2 0xB1 SWAP3 SWAP2 SWAP1 PUSH2 0x1C6 JUMP JUMPDEST POP PUSH1 0x40 MLOAD DUP1 PUSH2 0x1E0 ADD PUSH1 0x40 MSTORE DUP1 PUSH1 0x14 PUSH1 0xFF AND DUP2 MSTORE PUSH1 0x20 ADD PUSH1 0xA PUSH1 0xFF AND DUP2 MSTORE PUSH1 0x20 ADD PUSH1 0xF PUSH1 0xFF AND DUP2 MSTORE PUSH1 0x20 ADD PUSH1 0x5 PUSH1 0xFF AND DUP2 MSTORE PUSH1 0x20 ADD PUSH1 0x5 PUSH1 0xFF AND DUP2 MSTORE PUSH1 0x20 ADD PUSH1 0x5 PUSH1 0xFF AND DUP2 MSTORE PUSH1 0x20 ADD PUSH1 0x5 PUSH1 0xFF AND DUP2 MSTORE PUSH1 0x20 ADD PUSH1 0x5 PUSH1 0xFF AND DUP2 MSTORE PUSH1 0x20 ADD PUSH1 0x5 PUSH1 0xFF AND DUP2 MSTORE PUSH1 0x20 ADD PUSH1 0x5 PUSH1 0xFF AND DUP2 MSTORE PUSH1 0x20 ADD PUSH1 0x6 PUSH1 0xFF AND DUP2 MSTORE PUSH1 0x20 ADD PUSH1 0x6 PUSH1 0xFF AND DUP2 MSTORE PUSH1 0x20 ADD PUSH1 0x6 PUSH1 0xFF AND DUP2 MSTORE PUSH1 0x20 ADD PUSH1 0x6 PUSH1 0xFF AND DUP2 MSTORE PUSH1 0x20 ADD PUSH1 0x6 PUSH1 0xFF AND DUP2 MSTORE POP PUSH1 0xA SWAP1 PUSH1 0xF PUSH2 0x162 SWAP3 SWAP2 SWAP1 PUSH2 0x20B JUMP JUMPDEST POP PUSH1 0x8 PUSH1 0x19 SSTORE PUSH1 0x5 PUSH1 0x1A SSTORE PUSH1 0x5 PUSH1 0x1B SSTORE PUSH1 0x2 PUSH1 0x1C SSTORE PUSH1 0x1 PUSH1 0x1D PUSH1 0x0 PUSH2 0x100 EXP DUP2 SLOAD DUP2 PUSH1 0xFF MUL NOT AND SWAP1 DUP4 ISZERO ISZERO MUL OR SWAP1 SSTORE POP PUSH1 0x1 PUSH1 0x1D PUSH1 0x1 PUSH2 0x100 EXP DUP2 SLOAD DUP2 PUSH1 0xFF MUL NOT AND SWAP1 DUP4 ISZERO ISZERO MUL OR SWAP1 SSTORE POP PUSH3 0x278D00 PUSH1 0x1E SSTORE CALLVALUE DUP1 ISZERO PUSH2 0x1C0 JUMPI PUSH1 0x0 DUP1 REVERT JUMPDEST POP PUSH2 0x275 JUMP JUMPDEST DUP3 PUSH1 0x3 DUP2 ADD SWAP3 DUP3 ISZERO PUSH2 0x1FA JUMPI SWAP2 PUSH1 0x20 MUL DUP3 ADD JUMPDEST DUP3 DUP2 GT ISZERO PUSH2 0x1F9 JUMPI DUP3 MLOAD DUP3 SWAP1 PUSH1 0xFF AND SWAP1 SSTORE SWAP2 PUSH1 0x20 ADD SWAP2 SWAP1 PUSH1 0x1 ADD SWAP1 PUSH2 0x1D9 JUMP JUMPDEST JUMPDEST POP SWAP1 POP PUSH2 0x207 SWAP2 SWAP1 PUSH2 0x250 JUMP JUMPDEST POP SWAP1 JUMP JUMPDEST DUP3 PUSH1 0xF DUP2 ADD SWAP3 DUP3 ISZERO PUSH2 0x23F JUMPI SWAP2 PUSH1 0x20 MUL DUP3 ADD JUMPDEST DUP3 DUP2 GT ISZERO PUSH2 0x23E JUMPI DUP3 MLOAD DUP3 SWAP1 PUSH1 0xFF AND SWAP1 SSTORE SWAP2 PUSH1 0x20 ADD SWAP2 SWAP1 PUSH1 0x1 ADD SWAP1 PUSH2 0x21E JUMP JUMPDEST JUMPDEST POP SWAP1 POP PUSH2 0x24C SWAP2 SWAP1 PUSH2 0x250 JUMP JUMPDEST POP SWAP1 JUMP JUMPDEST PUSH2 0x272 SWAP2 SWAP1 JUMPDEST DUP1 DUP3 GT ISZERO PUSH2 0x26E JUMPI PUSH1 0x0 DUP2 PUSH1 0x0 SWAP1 SSTORE POP PUSH1 0x1 ADD PUSH2 0x256 JUMP JUMPDEST POP SWAP1 JUMP JUMPDEST SWAP1 JUMP JUMPDEST PUSH2 0x56E DUP1 PUSH2 0x284 PUSH1 0x0 CODECOPY PUSH1 0x0 RETURN INVALID PUSH1 0x80 PUSH1 0x40 MSTORE CALLVALUE DUP1 ISZERO PUSH2 0x10 JUMPI PUSH1 0x0 DUP1 REVERT JUMPDEST POP PUSH1 0x4 CALLDATASIZE LT PUSH2 0x137 JUMPI PUSH1 0x0 CALLDATALOAD PUSH1 0xE0 SHR DUP1 PUSH4 0x47703BBF GT PUSH2 0xB8 JUMPI DUP1 PUSH4 0x93EEA5FB GT PUSH2 0x7C JUMPI DUP1 PUSH4 0x93EEA5FB EQ PUSH2 0x376 JUMPI DUP1 PUSH4 0x9B52B0E2 EQ PUSH2 0x398 JUMPI DUP1 PUSH4 0xB1C2340A EQ PUSH2 0x3B6 JUMPI DUP1 PUSH4 0xBDB3D2DA EQ PUSH2 0x3F8 JUMPI DUP1 PUSH4 0xBDC0092D EQ PUSH2 0x416 JUMPI DUP1 PUSH4 0xDDAA26AD EQ PUSH2 0x438 JUMPI PUSH2 0x137 JUMP JUMPDEST DUP1 PUSH4 0x47703BBF EQ PUSH2 0x2E0 JUMPI DUP1 PUSH4 0x53D0F255 EQ PUSH2 0x2FE JUMPI DUP1 PUSH4 0x77913322 EQ PUSH2 0x31C JUMPI DUP1 PUSH4 0x847CE75F EQ PUSH2 0x33A JUMPI DUP1 PUSH4 0x863E76DB EQ PUSH2 0x358 JUMPI PUSH2 0x137 JUMP JUMPDEST DUP1 PUSH4 0x2A5414C7 GT PUSH2 0xFF JUMPI DUP1 PUSH4 0x2A5414C7 EQ PUSH2 0x21A JUMPI DUP1 PUSH4 0x2ECDBACC EQ PUSH2 0x238 JUMPI DUP1 PUSH4 0x342ADBAF EQ PUSH2 0x27A JUMPI DUP1 PUSH4 0x354852E8 EQ PUSH2 0x29E JUMPI DUP1 PUSH4 0x3FD90955 EQ PUSH2 0x2C2 JUMPI PUSH2 0x137 JUMP JUMPDEST DUP1 PUSH4 0x828F8AF EQ PUSH2 0x13C JUMPI DUP1 PUSH4 0x1810847C EQ PUSH2 0x17E JUMPI DUP1 PUSH4 0x19C09953 EQ PUSH2 0x19C JUMPI DUP1 PUSH4 0x1F7D6E40 EQ PUSH2 0x1BA JUMPI DUP1 PUSH4 0x2152D77E EQ PUSH2 0x1D8 JUMPI JUMPDEST PUSH1 0x0 DUP1 REVERT JUMPDEST PUSH2 0x168 PUSH1 0x4 DUP1 CALLDATASIZE SUB PUSH1 0x20 DUP2 LT ISZERO PUSH2 0x152 JUMPI PUSH1 0x0 DUP1 REVERT JUMPDEST DUP2 ADD SWAP1 DUP1 DUP1 CALLDATALOAD SWAP1 PUSH1 0x20 ADD SWAP1 SWAP3 SWAP2 SWAP1 POP POP POP PUSH2 0x456 JUMP JUMPDEST PUSH1 0x40 MLOAD DUP1 DUP3 DUP2 MSTORE PUSH1 0x20 ADD SWAP2 POP POP PUSH1 0x40 MLOAD DUP1 SWAP2 SUB SWAP1 RETURN JUMPDEST PUSH2 0x186 PUSH2 0x46E JUMP JUMPDEST PUSH1 0x40 MLOAD DUP1 DUP3 DUP2 MSTORE PUSH1 0x20 ADD SWAP2 POP POP PUSH1 0x40 MLOAD DUP1 SWAP2 SUB SWAP1 RETURN JUMPDEST PUSH2 0x1A4 PUSH2 0x473 JUMP JUMPDEST PUSH1 0x40 MLOAD DUP1 DUP3 DUP2 MSTORE PUSH1 0x20 ADD SWAP2 POP POP PUSH1 0x40 MLOAD DUP1 SWAP2 SUB SWAP1 RETURN JUMPDEST PUSH2 0x1C2 PUSH2 0x479 JUMP JUMPDEST PUSH1 0x40 MLOAD DUP1 DUP3 DUP2 MSTORE PUSH1 0x20 ADD SWAP2 POP POP PUSH1 0x40 MLOAD DUP1 SWAP2 SUB SWAP1 RETURN JUMPDEST PUSH2 0x204 PUSH1 0x4 DUP1 CALLDATASIZE SUB PUSH1 0x20 DUP2 LT ISZERO PUSH2 0x1EE JUMPI PUSH1 0x0 DUP1 REVERT JUMPDEST DUP2 ADD SWAP1 DUP1 DUP1 CALLDATALOAD SWAP1 PUSH1 0x20 ADD SWAP1 SWAP3 SWAP2 SWAP1 POP POP POP PUSH2 0x480 JUMP JUMPDEST PUSH1 0x40 MLOAD DUP1 DUP3 DUP2 MSTORE PUSH1 0x20 ADD SWAP2 POP POP PUSH1 0x40 MLOAD DUP1 SWAP2 SUB SWAP1 RETURN JUMPDEST PUSH2 0x222 PUSH2 0x498 JUMP JUMPDEST PUSH1 0x40 MLOAD DUP1 DUP3 DUP2 MSTORE PUSH1 0x20 ADD SWAP2 POP POP PUSH1 0x40 MLOAD DUP1 SWAP2 SUB SWAP1 RETURN JUMPDEST PUSH2 0x264 PUSH1 0x4 DUP1 CALLDATASIZE SUB PUSH1 0x20 DUP2 LT ISZERO PUSH2 0x24E JUMPI PUSH1 0x0 DUP1 REVERT JUMPDEST DUP2 ADD SWAP1 DUP1 DUP1 CALLDATALOAD SWAP1 PUSH1 0x20 ADD SWAP1 SWAP3 SWAP2 SWAP1 POP POP POP PUSH2 0x49E JUMP JUMPDEST PUSH1 0x40 MLOAD DUP1 DUP3 DUP2 MSTORE PUSH1 0x20 ADD SWAP2 POP POP PUSH1 0x40 MLOAD DUP1 SWAP2 SUB SWAP1 RETURN JUMPDEST PUSH2 0x282 PUSH2 0x4B6 JUMP JUMPDEST PUSH1 0x40 MLOAD DUP1 DUP3 PUSH1 0xFF AND PUSH1 0xFF AND DUP2 MSTORE PUSH1 0x20 ADD SWAP2 POP POP PUSH1 0x40 MLOAD DUP1 SWAP2 SUB SWAP1 RETURN JUMPDEST PUSH2 0x2A6 PUSH2 0x4BB JUMP JUMPDEST PUSH1 0x40 MLOAD DUP1 DUP3 PUSH1 0xFF AND PUSH1 0xFF AND DUP2 MSTORE PUSH1 0x20 ADD SWAP2 POP POP PUSH1 0x40 MLOAD DUP1 SWAP2 SUB SWAP1 RETURN JUMPDEST PUSH2 0x2CA PUSH2 0x4C0 JUMP JUMPDEST PUSH1 0x40 MLOAD DUP1 DUP3 DUP2 MSTORE PUSH1 0x20 ADD SWAP2 POP POP PUSH1 0x40 MLOAD DUP1 SWAP2 SUB SWAP1 RETURN JUMPDEST PUSH2 0x2E8 PUSH2 0x4C6 JUMP JUMPDEST PUSH1 0x40 MLOAD DUP1 DUP3 DUP2 MSTORE PUSH1 0x20 ADD SWAP2 POP POP PUSH1 0x40 MLOAD DUP1 SWAP2 SUB SWAP1 RETURN JUMPDEST PUSH2 0x306 PUSH2 0x4CE JUMP JUMPDEST PUSH1 0x40 MLOAD DUP1 DUP3 DUP2 MSTORE PUSH1 0x20 ADD SWAP2 POP POP PUSH1 0x40 MLOAD DUP1 SWAP2 SUB SWAP1 RETURN JUMPDEST PUSH2 0x324 PUSH2 0x4D4 JUMP JUMPDEST PUSH1 0x40 MLOAD DUP1 DUP3 DUP2 MSTORE PUSH1 0x20 ADD SWAP2 POP POP PUSH1 0x40 MLOAD DUP1 SWAP2 SUB SWAP1 RETURN JUMPDEST PUSH2 0x342 PUSH2 0x4DA JUMP JUMPDEST PUSH1 0x40 MLOAD DUP1 DUP3 DUP2 MSTORE PUSH1 0x20 ADD SWAP2 POP POP PUSH1 0x40 MLOAD DUP1 SWAP2 SUB SWAP1 RETURN JUMPDEST PUSH2 0x360 PUSH2 0x4E0 JUMP JUMPDEST PUSH1 0x40 MLOAD DUP1 DUP3 DUP2 MSTORE PUSH1 0x20 ADD SWAP2 POP POP PUSH1 0x40 MLOAD DUP1 SWAP2 SUB SWAP1 RETURN JUMPDEST PUSH2 0x37E PUSH2 0x4E7 JUMP JUMPDEST PUSH1 0x40 MLOAD DUP1 DUP3 ISZERO ISZERO ISZERO ISZERO DUP2 MSTORE PUSH1 0x20 ADD SWAP2 POP POP PUSH1 0x40 MLOAD DUP1 SWAP2 SUB SWAP1 RETURN JUMPDEST PUSH2 0x3A0 PUSH2 0x4FA JUMP JUMPDEST PUSH1 0x40 MLOAD DUP1 DUP3 DUP2 MSTORE PUSH1 0x20 ADD SWAP2 POP POP PUSH1 0x40 MLOAD DUP1 SWAP2 SUB SWAP1 RETURN JUMPDEST PUSH2 0x3E2 PUSH1 0x4 DUP1 CALLDATASIZE SUB PUSH1 0x20 DUP2 LT ISZERO PUSH2 0x3CC JUMPI PUSH1 0x0 DUP1 REVERT JUMPDEST DUP2 ADD SWAP1 DUP1 DUP1 CALLDATALOAD SWAP1 PUSH1 0x20 ADD SWAP1 SWAP3 SWAP2 SWAP1 POP POP POP PUSH2 0x500 JUMP JUMPDEST PUSH1 0x40 MLOAD DUP1 DUP3 DUP2 MSTORE PUSH1 0x20 ADD SWAP2 POP POP PUSH1 0x40 MLOAD DUP1 SWAP2 SUB SWAP1 RETURN JUMPDEST PUSH2 0x400 PUSH2 0x518 JUMP JUMPDEST PUSH1 0x40 MLOAD DUP1 DUP3 DUP2 MSTORE PUSH1 0x20 ADD SWAP2 POP POP PUSH1 0x40 MLOAD DUP1 SWAP2 SUB SWAP1 RETURN JUMPDEST PUSH2 0x41E PUSH2 0x51E JUMP JUMPDEST PUSH1 0x40 MLOAD DUP1 DUP3 ISZERO ISZERO ISZERO ISZERO DUP2 MSTORE PUSH1 0x20 ADD SWAP2 POP POP PUSH1 0x40 MLOAD DUP1 SWAP2 SUB SWAP1 RETURN JUMPDEST PUSH2 0x440 PUSH2 0x531 JUMP JUMPDEST PUSH1 0x40 MLOAD DUP1 DUP3 DUP2 MSTORE PUSH1 0x20 ADD SWAP2 POP POP PUSH1 0x40 MLOAD DUP1 SWAP2 SUB SWAP1 RETURN JUMPDEST PUSH1 0x7 DUP2 PUSH1 0x3 DUP2 LT PUSH2 0x463 JUMPI INVALID JUMPDEST ADD PUSH1 0x0 SWAP2 POP SWAP1 POP SLOAD DUP2 JUMP JUMPDEST PUSH1 0x64 DUP2 JUMP JUMPDEST PUSH1 0x1C SLOAD DUP2 JUMP JUMPDEST PUSH3 0x186A0 DUP2 JUMP JUMPDEST PUSH1 0xA DUP2 PUSH1 0xF DUP2 LT PUSH2 0x48D JUMPI INVALID JUMPDEST ADD PUSH1 0x0 SWAP2 POP SWAP1 POP SLOAD DUP2 JUMP JUMPDEST PUSH1 0x19 SLOAD DUP2 JUMP JUMPDEST PUSH1 0x4 DUP2 PUSH1 0x3 DUP2 LT PUSH2 0x4AB JUMPI INVALID JUMPDEST ADD PUSH1 0x0 SWAP2 POP SWAP1 POP SLOAD DUP2 JUMP JUMPDEST PUSH1 0x21 DUP2 JUMP JUMPDEST PUSH1 0x3 DUP2 JUMP JUMPDEST PUSH1 0x1A SLOAD DUP2 JUMP JUMPDEST PUSH4 0x5FD16500 DUP2 JUMP JUMPDEST PUSH2 0x1388 DUP2 JUMP JUMPDEST PUSH2 0x3840 DUP2 JUMP JUMPDEST PUSH1 0x1E SLOAD DUP2 JUMP JUMPDEST PUSH3 0x15180 DUP2 JUMP JUMPDEST PUSH1 0x1D PUSH1 0x0 SWAP1 SLOAD SWAP1 PUSH2 0x100 EXP SWAP1 DIV PUSH1 0xFF AND DUP2 JUMP JUMPDEST PUSH1 0x1B SLOAD DUP2 JUMP JUMPDEST PUSH1 0x1 DUP2 PUSH1 0x3 DUP2 LT PUSH2 0x50D JUMPI INVALID JUMPDEST ADD PUSH1 0x0 SWAP2 POP SWAP1 POP SLOAD DUP2 JUMP JUMPDEST PUSH1 0x0 SLOAD DUP2 JUMP JUMPDEST PUSH1 0x1D PUSH1 0x1 SWAP1 SLOAD SWAP1 PUSH2 0x100 EXP SWAP1 DIV PUSH1 0xFF AND DUP2 JUMP JUMPDEST PUSH4 0x5FD16500 DUP2 JUMP INVALID LOG2 PUSH6 0x627A7A723158 KECCAK256 PUSH7 0x95E2CE64224F1C 0x2E 0xE5 GASLIMIT CALLVALUE GT PUSH19 0x3AC21B8F05E5D1C3F305DFBC1CCAB4FA378A64 PUSH20 0x6F6C634300050F00320000000000000000000000 "
		},
		"gasEstimates": {
			"creation": {
				"codeDepositCost": "278000",
				"executionCost": "infinite",
				"totalCost": "infinite"
			},
			"external": {
				"CREATE_TIME()": "228",
				"DEPOSITS_TYPES_COUNT()": "306",
				"FORCE_WITHDRAW()": "1213",
				"LEADER_PERCENT()": "1028",
				"LUCKY_PERCENT()": "1073",
				"MAXIMAL_DEPOSIT()": "295",
				"MINIMAL_DEPOSIT()": "251",
				"MODEL_REWARDS_PERCENTS(uint256)": "1241",
				"ONE_DAY()": "316",
				"RECOMMEND_AUTO()": "1075",
				"RECOMMEND_PERCENT()": "1049",
				"START_TIME()": "337",
				"STEP()": "250",
				"TRON1_PERCENT()": "1116",
				"WITHDRAW_DURATION()": "272",
				"WITHDRAW_MUL()": "284",
				"earn_percent(uint256)": "1174",
				"freeze_cycle()": "1094",
				"luckyPercentLimit(uint256)": "1153",
				"luckyPrizeLimit()": "1093",
				"overLimit(uint256)": "1195"
			}
		},
		"methodIdentifiers": {
			"CREATE_TIME()": "47703bbf",
			"DEPOSITS_TYPES_COUNT()": "354852e8",
			"FORCE_WITHDRAW()": "bdc0092d",
			"LEADER_PERCENT()": "2a5414c7",
			"LUCKY_PERCENT()": "19c09953",
			"MAXIMAL_DEPOSIT()": "1f7d6e40",
			"MINIMAL_DEPOSIT()": "1810847c",
			"MODEL_REWARDS_PERCENTS(uint256)": "2152d77e",
			"ONE_DAY()": "863e76db",
			"RECOMMEND_AUTO()": "93eea5fb",
			"RECOMMEND_PERCENT()": "9b52b0e2",
			"START_TIME()": "ddaa26ad",
			"STEP()": "53d0f255",
			"TRON1_PERCENT()": "3fd90955",
			"WITHDRAW_DURATION()": "77913322",
			"WITHDRAW_MUL()": "342adbaf",
			"earn_percent(uint256)": "2ecdbacc",
			"freeze_cycle()": "847ce75f",
			"luckyPercentLimit(uint256)": "0828f8af",
			"luckyPrizeLimit()": "bdb3d2da",
			"overLimit(uint256)": "b1c2340a"
		}
	},
	"abi": [
		{
			"constant": true,
			"inputs": [],
			"name": "CREATE_TIME",
			"outputs": [
				{
					"internalType": "uint256",
					"name": "",
					"type": "uint256"
				}
			],
			"payable": false,
			"stateMutability": "view",
			"type": "function"
		},
		{
			"constant": true,
			"inputs": [],
			"name": "DEPOSITS_TYPES_COUNT",
			"outputs": [
				{
					"internalType": "uint8",
					"name": "",
					"type": "uint8"
				}
			],
			"payable": false,
			"stateMutability": "view",
			"type": "function"
		},
		{
			"constant": true,
			"inputs": [],
			"name": "FORCE_WITHDRAW",
			"outputs": [
				{
					"internalType": "bool",
					"name": "",
					"type": "bool"
				}
			],
			"payable": false,
			"stateMutability": "view",
			"type": "function"
		},
		{
			"constant": true,
			"inputs": [],
			"name": "LEADER_PERCENT",
			"outputs": [
				{
					"internalType": "uint256",
					"name": "",
					"type": "uint256"
				}
			],
			"payable": false,
			"stateMutability": "view",
			"type": "function"
		},
		{
			"constant": true,
			"inputs": [],
			"name": "LUCKY_PERCENT",
			"outputs": [
				{
					"internalType": "uint256",
					"name": "",
					"type": "uint256"
				}
			],
			"payable": false,
			"stateMutability": "view",
			"type": "function"
		},
		{
			"constant": true,
			"inputs": [],
			"name": "MAXIMAL_DEPOSIT",
			"outputs": [
				{
					"internalType": "uint256",
					"name": "",
					"type": "uint256"
				}
			],
			"payable": false,
			"stateMutability": "view",
			"type": "function"
		},
		{
			"constant": true,
			"inputs": [],
			"name": "MINIMAL_DEPOSIT",
			"outputs": [
				{
					"internalType": "uint256",
					"name": "",
					"type": "uint256"
				}
			],
			"payable": false,
			"stateMutability": "view",
			"type": "function"
		},
		{
			"constant": true,
			"inputs": [
				{
					"internalType": "uint256",
					"name": "",
					"type": "uint256"
				}
			],
			"name": "MODEL_REWARDS_PERCENTS",
			"outputs": [
				{
					"internalType": "uint256",
					"name": "",
					"type": "uint256"
				}
			],
			"payable": false,
			"stateMutability": "view",
			"type": "function"
		},
		{
			"constant": true,
			"inputs": [],
			"name": "ONE_DAY",
			"outputs": [
				{
					"internalType": "uint256",
					"name": "",
					"type": "uint256"
				}
			],
			"payable": false,
			"stateMutability": "view",
			"type": "function"
		},
		{
			"constant": true,
			"inputs": [],
			"name": "RECOMMEND_AUTO",
			"outputs": [
				{
					"internalType": "bool",
					"name": "",
					"type": "bool"
				}
			],
			"payable": false,
			"stateMutability": "view",
			"type": "function"
		},
		{
			"constant": true,
			"inputs": [],
			"name": "RECOMMEND_PERCENT",
			"outputs": [
				{
					"internalType": "uint256",
					"name": "",
					"type": "uint256"
				}
			],
			"payable": false,
			"stateMutability": "view",
			"type": "function"
		},
		{
			"constant": true,
			"inputs": [],
			"name": "START_TIME",
			"outputs": [
				{
					"internalType": "uint256",
					"name": "",
					"type": "uint256"
				}
			],
			"payable": false,
			"stateMutability": "view",
			"type": "function"
		},
		{
			"constant": true,
			"inputs": [],
			"name": "STEP",
			"outputs": [
				{
					"internalType": "uint256",
					"name": "",
					"type": "uint256"
				}
			],
			"payable": false,
			"stateMutability": "view",
			"type": "function"
		},
		{
			"constant": true,
			"inputs": [],
			"name": "TRON1_PERCENT",
			"outputs": [
				{
					"internalType": "uint256",
					"name": "",
					"type": "uint256"
				}
			],
			"payable": false,
			"stateMutability": "view",
			"type": "function"
		},
		{
			"constant": true,
			"inputs": [],
			"name": "WITHDRAW_DURATION",
			"outputs": [
				{
					"internalType": "uint256",
					"name": "",
					"type": "uint256"
				}
			],
			"payable": false,
			"stateMutability": "view",
			"type": "function"
		},
		{
			"constant": true,
			"inputs": [],
			"name": "WITHDRAW_MUL",
			"outputs": [
				{
					"internalType": "uint8",
					"name": "",
					"type": "uint8"
				}
			],
			"payable": false,
			"stateMutability": "view",
			"type": "function"
		},
		{
			"constant": true,
			"inputs": [
				{
					"internalType": "uint256",
					"name": "",
					"type": "uint256"
				}
			],
			"name": "earn_percent",
			"outputs": [
				{
					"internalType": "uint256",
					"name": "",
					"type": "uint256"
				}
			],
			"payable": false,
			"stateMutability": "view",
			"type": "function"
		},
		{
			"constant": true,
			"inputs": [],
			"name": "freeze_cycle",
			"outputs": [
				{
					"internalType": "uint256",
					"name": "",
					"type": "uint256"
				}
			],
			"payable": false,
			"stateMutability": "view",
			"type": "function"
		},
		{
			"constant": true,
			"inputs": [
				{
					"internalType": "uint256",
					"name": "",
					"type": "uint256"
				}
			],
			"name": "luckyPercentLimit",
			"outputs": [
				{
					"internalType": "uint256",
					"name": "",
					"type": "uint256"
				}
			],
			"payable": false,
			"stateMutability": "view",
			"type": "function"
		},
		{
			"constant": true,
			"inputs": [],
			"name": "luckyPrizeLimit",
			"outputs": [
				{
					"internalType": "uint256",
					"name": "",
					"type": "uint256"
				}
			],
			"payable": false,
			"stateMutability": "view",
			"type": "function"
		},
		{
			"constant": true,
			"inputs": [
				{
					"internalType": "uint256",
					"name": "",
					"type": "uint256"
				}
			],
			"name": "overLimit",
			"outputs": [
				{
					"internalType": "uint256",
					"name": "",
					"type": "uint256"
				}
			],
			"payable": false,
			"stateMutability": "view",
			"type": "function"
		}
	]
}