{
	"data": {
		"bytecode": {
			"linkReferences": {},
			"object": "60806040526127106000556040518060600160405280606460ff168152602001603260ff168152602001606460ff1681525060019060036100419291906101ab565b506040518060600160405280600160ff168152602001600160ff168152602001601460ff1681525060049060036100799291906101ab565b506040518060600160405280600060ff168152602001603260ff168152602001606460ff1681525060079060036100b19291906101ab565b50604051806101e00160405280601460ff168152602001600a60ff168152602001600f60ff168152602001600560ff168152602001600560ff168152602001600560ff168152602001600560ff168152602001600560ff168152602001600560ff168152602001600560ff168152602001600660ff168152602001600660ff168152602001600660ff168152602001600660ff168152602001600660ff16815250600a90600f6101629291906101f0565b5060086019556005601a556005601b556002601c556001601d60006101000a81548160ff02191690831515021790555062278d00601e553480156101a557600080fd5b5061025a565b82600381019282156101df579160200282015b828111156101de578251829060ff169055916020019190600101906101be565b5b5090506101ec9190610235565b5090565b82600f8101928215610224579160200282015b82811115610223578251829060ff16905591602001919060010190610203565b5b5090506102319190610235565b5090565b61025791905b8082111561025357600081600090555060010161023b565b5090565b90565b61052e806102696000396000f3fe608060405234801561001057600080fd5b506004361061012c5760003560e01c806347703bbf116100ad57806393eea5fb1161007157806393eea5fb1461036b5780639b52b0e21461038d578063b1c2340a146103ab578063bdb3d2da146103ed578063ddaa26ad1461040b5761012c565b806347703bbf146102d557806353d0f255146102f35780637791332214610311578063847ce75f1461032f578063863e76db1461034d5761012c565b80632a5414c7116100f45780632a5414c71461020f5780632ecdbacc1461022d578063342adbaf1461026f578063354852e8146102935780633fd90955146102b75761012c565b80630828f8af146101315780631810847c1461017357806319c09953146101915780631f7d6e40146101af5780632152d77e146101cd575b600080fd5b61015d6004803603602081101561014757600080fd5b8101908080359060200190929190505050610429565b6040518082815260200191505060405180910390f35b61017b610441565b6040518082815260200191505060405180910390f35b610199610446565b6040518082815260200191505060405180910390f35b6101b761044c565b6040518082815260200191505060405180910390f35b6101f9600480360360208110156101e357600080fd5b8101908080359060200190929190505050610453565b6040518082815260200191505060405180910390f35b61021761046b565b6040518082815260200191505060405180910390f35b6102596004803603602081101561024357600080fd5b8101908080359060200190929190505050610471565b6040518082815260200191505060405180910390f35b610277610489565b604051808260ff1660ff16815260200191505060405180910390f35b61029b61048e565b604051808260ff1660ff16815260200191505060405180910390f35b6102bf610493565b6040518082815260200191505060405180910390f35b6102dd610499565b6040518082815260200191505060405180910390f35b6102fb6104a1565b6040518082815260200191505060405180910390f35b6103196104a7565b6040518082815260200191505060405180910390f35b6103376104ad565b6040518082815260200191505060405180910390f35b6103556104b3565b6040518082815260200191505060405180910390f35b6103736104ba565b604051808215151515815260200191505060405180910390f35b6103956104cd565b6040518082815260200191505060405180910390f35b6103d7600480360360208110156103c157600080fd5b81019080803590602001909291905050506104d3565b6040518082815260200191505060405180910390f35b6103f56104eb565b6040518082815260200191505060405180910390f35b6104136104f1565b6040518082815260200191505060405180910390f35b6007816003811061043657fe5b016000915090505481565b606481565b601c5481565b620186a081565b600a81600f811061046057fe5b016000915090505481565b60195481565b6004816003811061047e57fe5b016000915090505481565b602181565b600381565b601a5481565b635fd753c081565b61138881565b61384081565b601e5481565b6201518081565b601d60009054906101000a900460ff1681565b601b5481565b600181600381106104e057fe5b016000915090505481565b60005481565b635fd753c08156fea265627a7a7231582027e8da085d9933f8500cd844c90b6fd39e32adab98e26e93d5d0f4e6f8d330eb64736f6c634300050f0032",
			"opcodes": "PUSH1 0x80 PUSH1 0x40 MSTORE PUSH2 0x2710 PUSH1 0x0 SSTORE PUSH1 0x40 MLOAD DUP1 PUSH1 0x60 ADD PUSH1 0x40 MSTORE DUP1 PUSH1 0x64 PUSH1 0xFF AND DUP2 MSTORE PUSH1 0x20 ADD PUSH1 0x32 PUSH1 0xFF AND DUP2 MSTORE PUSH1 0x20 ADD PUSH1 0x64 PUSH1 0xFF AND DUP2 MSTORE POP PUSH1 0x1 SWAP1 PUSH1 0x3 PUSH2 0x41 SWAP3 SWAP2 SWAP1 PUSH2 0x1AB JUMP JUMPDEST POP PUSH1 0x40 MLOAD DUP1 PUSH1 0x60 ADD PUSH1 0x40 MSTORE DUP1 PUSH1 0x1 PUSH1 0xFF AND DUP2 MSTORE PUSH1 0x20 ADD PUSH1 0x1 PUSH1 0xFF AND DUP2 MSTORE PUSH1 0x20 ADD PUSH1 0x14 PUSH1 0xFF AND DUP2 MSTORE POP PUSH1 0x4 SWAP1 PUSH1 0x3 PUSH2 0x79 SWAP3 SWAP2 SWAP1 PUSH2 0x1AB JUMP JUMPDEST POP PUSH1 0x40 MLOAD DUP1 PUSH1 0x60 ADD PUSH1 0x40 MSTORE DUP1 PUSH1 0x0 PUSH1 0xFF AND DUP2 MSTORE PUSH1 0x20 ADD PUSH1 0x32 PUSH1 0xFF AND DUP2 MSTORE PUSH1 0x20 ADD PUSH1 0x64 PUSH1 0xFF AND DUP2 MSTORE POP PUSH1 0x7 SWAP1 PUSH1 0x3 PUSH2 0xB1 SWAP3 SWAP2 SWAP1 PUSH2 0x1AB JUMP JUMPDEST POP PUSH1 0x40 MLOAD DUP1 PUSH2 0x1E0 ADD PUSH1 0x40 MSTORE DUP1 PUSH1 0x14 PUSH1 0xFF AND DUP2 MSTORE PUSH1 0x20 ADD PUSH1 0xA PUSH1 0xFF AND DUP2 MSTORE PUSH1 0x20 ADD PUSH1 0xF PUSH1 0xFF AND DUP2 MSTORE PUSH1 0x20 ADD PUSH1 0x5 PUSH1 0xFF AND DUP2 MSTORE PUSH1 0x20 ADD PUSH1 0x5 PUSH1 0xFF AND DUP2 MSTORE PUSH1 0x20 ADD PUSH1 0x5 PUSH1 0xFF AND DUP2 MSTORE PUSH1 0x20 ADD PUSH1 0x5 PUSH1 0xFF AND DUP2 MSTORE PUSH1 0x20 ADD PUSH1 0x5 PUSH1 0xFF AND DUP2 MSTORE PUSH1 0x20 ADD PUSH1 0x5 PUSH1 0xFF AND DUP2 MSTORE PUSH1 0x20 ADD PUSH1 0x5 PUSH1 0xFF AND DUP2 MSTORE PUSH1 0x20 ADD PUSH1 0x6 PUSH1 0xFF AND DUP2 MSTORE PUSH1 0x20 ADD PUSH1 0x6 PUSH1 0xFF AND DUP2 MSTORE PUSH1 0x20 ADD PUSH1 0x6 PUSH1 0xFF AND DUP2 MSTORE PUSH1 0x20 ADD PUSH1 0x6 PUSH1 0xFF AND DUP2 MSTORE PUSH1 0x20 ADD PUSH1 0x6 PUSH1 0xFF AND DUP2 MSTORE POP PUSH1 0xA SWAP1 PUSH1 0xF PUSH2 0x162 SWAP3 SWAP2 SWAP1 PUSH2 0x1F0 JUMP JUMPDEST POP PUSH1 0x8 PUSH1 0x19 SSTORE PUSH1 0x5 PUSH1 0x1A SSTORE PUSH1 0x5 PUSH1 0x1B SSTORE PUSH1 0x2 PUSH1 0x1C SSTORE PUSH1 0x1 PUSH1 0x1D PUSH1 0x0 PUSH2 0x100 EXP DUP2 SLOAD DUP2 PUSH1 0xFF MUL NOT AND SWAP1 DUP4 ISZERO ISZERO MUL OR SWAP1 SSTORE POP PUSH3 0x278D00 PUSH1 0x1E SSTORE CALLVALUE DUP1 ISZERO PUSH2 0x1A5 JUMPI PUSH1 0x0 DUP1 REVERT JUMPDEST POP PUSH2 0x25A JUMP JUMPDEST DUP3 PUSH1 0x3 DUP2 ADD SWAP3 DUP3 ISZERO PUSH2 0x1DF JUMPI SWAP2 PUSH1 0x20 MUL DUP3 ADD JUMPDEST DUP3 DUP2 GT ISZERO PUSH2 0x1DE JUMPI DUP3 MLOAD DUP3 SWAP1 PUSH1 0xFF AND SWAP1 SSTORE SWAP2 PUSH1 0x20 ADD SWAP2 SWAP1 PUSH1 0x1 ADD SWAP1 PUSH2 0x1BE JUMP JUMPDEST JUMPDEST POP SWAP1 POP PUSH2 0x1EC SWAP2 SWAP1 PUSH2 0x235 JUMP JUMPDEST POP SWAP1 JUMP JUMPDEST DUP3 PUSH1 0xF DUP2 ADD SWAP3 DUP3 ISZERO PUSH2 0x224 JUMPI SWAP2 PUSH1 0x20 MUL DUP3 ADD JUMPDEST DUP3 DUP2 GT ISZERO PUSH2 0x223 JUMPI DUP3 MLOAD DUP3 SWAP1 PUSH1 0xFF AND SWAP1 SSTORE SWAP2 PUSH1 0x20 ADD SWAP2 SWAP1 PUSH1 0x1 ADD SWAP1 PUSH2 0x203 JUMP JUMPDEST JUMPDEST POP SWAP1 POP PUSH2 0x231 SWAP2 SWAP1 PUSH2 0x235 JUMP JUMPDEST POP SWAP1 JUMP JUMPDEST PUSH2 0x257 SWAP2 SWAP1 JUMPDEST DUP1 DUP3 GT ISZERO PUSH2 0x253 JUMPI PUSH1 0x0 DUP2 PUSH1 0x0 SWAP1 SSTORE POP PUSH1 0x1 ADD PUSH2 0x23B JUMP JUMPDEST POP SWAP1 JUMP JUMPDEST SWAP1 JUMP JUMPDEST PUSH2 0x52E DUP1 PUSH2 0x269 PUSH1 0x0 CODECOPY PUSH1 0x0 RETURN INVALID PUSH1 0x80 PUSH1 0x40 MSTORE CALLVALUE DUP1 ISZERO PUSH2 0x10 JUMPI PUSH1 0x0 DUP1 REVERT JUMPDEST POP PUSH1 0x4 CALLDATASIZE LT PUSH2 0x12C JUMPI PUSH1 0x0 CALLDATALOAD PUSH1 0xE0 SHR DUP1 PUSH4 0x47703BBF GT PUSH2 0xAD JUMPI DUP1 PUSH4 0x93EEA5FB GT PUSH2 0x71 JUMPI DUP1 PUSH4 0x93EEA5FB EQ PUSH2 0x36B JUMPI DUP1 PUSH4 0x9B52B0E2 EQ PUSH2 0x38D JUMPI DUP1 PUSH4 0xB1C2340A EQ PUSH2 0x3AB JUMPI DUP1 PUSH4 0xBDB3D2DA EQ PUSH2 0x3ED JUMPI DUP1 PUSH4 0xDDAA26AD EQ PUSH2 0x40B JUMPI PUSH2 0x12C JUMP JUMPDEST DUP1 PUSH4 0x47703BBF EQ PUSH2 0x2D5 JUMPI DUP1 PUSH4 0x53D0F255 EQ PUSH2 0x2F3 JUMPI DUP1 PUSH4 0x77913322 EQ PUSH2 0x311 JUMPI DUP1 PUSH4 0x847CE75F EQ PUSH2 0x32F JUMPI DUP1 PUSH4 0x863E76DB EQ PUSH2 0x34D JUMPI PUSH2 0x12C JUMP JUMPDEST DUP1 PUSH4 0x2A5414C7 GT PUSH2 0xF4 JUMPI DUP1 PUSH4 0x2A5414C7 EQ PUSH2 0x20F JUMPI DUP1 PUSH4 0x2ECDBACC EQ PUSH2 0x22D JUMPI DUP1 PUSH4 0x342ADBAF EQ PUSH2 0x26F JUMPI DUP1 PUSH4 0x354852E8 EQ PUSH2 0x293 JUMPI DUP1 PUSH4 0x3FD90955 EQ PUSH2 0x2B7 JUMPI PUSH2 0x12C JUMP JUMPDEST DUP1 PUSH4 0x828F8AF EQ PUSH2 0x131 JUMPI DUP1 PUSH4 0x1810847C EQ PUSH2 0x173 JUMPI DUP1 PUSH4 0x19C09953 EQ PUSH2 0x191 JUMPI DUP1 PUSH4 0x1F7D6E40 EQ PUSH2 0x1AF JUMPI DUP1 PUSH4 0x2152D77E EQ PUSH2 0x1CD JUMPI JUMPDEST PUSH1 0x0 DUP1 REVERT JUMPDEST PUSH2 0x15D PUSH1 0x4 DUP1 CALLDATASIZE SUB PUSH1 0x20 DUP2 LT ISZERO PUSH2 0x147 JUMPI PUSH1 0x0 DUP1 REVERT JUMPDEST DUP2 ADD SWAP1 DUP1 DUP1 CALLDATALOAD SWAP1 PUSH1 0x20 ADD SWAP1 SWAP3 SWAP2 SWAP1 POP POP POP PUSH2 0x429 JUMP JUMPDEST PUSH1 0x40 MLOAD DUP1 DUP3 DUP2 MSTORE PUSH1 0x20 ADD SWAP2 POP POP PUSH1 0x40 MLOAD DUP1 SWAP2 SUB SWAP1 RETURN JUMPDEST PUSH2 0x17B PUSH2 0x441 JUMP JUMPDEST PUSH1 0x40 MLOAD DUP1 DUP3 DUP2 MSTORE PUSH1 0x20 ADD SWAP2 POP POP PUSH1 0x40 MLOAD DUP1 SWAP2 SUB SWAP1 RETURN JUMPDEST PUSH2 0x199 PUSH2 0x446 JUMP JUMPDEST PUSH1 0x40 MLOAD DUP1 DUP3 DUP2 MSTORE PUSH1 0x20 ADD SWAP2 POP POP PUSH1 0x40 MLOAD DUP1 SWAP2 SUB SWAP1 RETURN JUMPDEST PUSH2 0x1B7 PUSH2 0x44C JUMP JUMPDEST PUSH1 0x40 MLOAD DUP1 DUP3 DUP2 MSTORE PUSH1 0x20 ADD SWAP2 POP POP PUSH1 0x40 MLOAD DUP1 SWAP2 SUB SWAP1 RETURN JUMPDEST PUSH2 0x1F9 PUSH1 0x4 DUP1 CALLDATASIZE SUB PUSH1 0x20 DUP2 LT ISZERO PUSH2 0x1E3 JUMPI PUSH1 0x0 DUP1 REVERT JUMPDEST DUP2 ADD SWAP1 DUP1 DUP1 CALLDATALOAD SWAP1 PUSH1 0x20 ADD SWAP1 SWAP3 SWAP2 SWAP1 POP POP POP PUSH2 0x453 JUMP JUMPDEST PUSH1 0x40 MLOAD DUP1 DUP3 DUP2 MSTORE PUSH1 0x20 ADD SWAP2 POP POP PUSH1 0x40 MLOAD DUP1 SWAP2 SUB SWAP1 RETURN JUMPDEST PUSH2 0x217 PUSH2 0x46B JUMP JUMPDEST PUSH1 0x40 MLOAD DUP1 DUP3 DUP2 MSTORE PUSH1 0x20 ADD SWAP2 POP POP PUSH1 0x40 MLOAD DUP1 SWAP2 SUB SWAP1 RETURN JUMPDEST PUSH2 0x259 PUSH1 0x4 DUP1 CALLDATASIZE SUB PUSH1 0x20 DUP2 LT ISZERO PUSH2 0x243 JUMPI PUSH1 0x0 DUP1 REVERT JUMPDEST DUP2 ADD SWAP1 DUP1 DUP1 CALLDATALOAD SWAP1 PUSH1 0x20 ADD SWAP1 SWAP3 SWAP2 SWAP1 POP POP POP PUSH2 0x471 JUMP JUMPDEST PUSH1 0x40 MLOAD DUP1 DUP3 DUP2 MSTORE PUSH1 0x20 ADD SWAP2 POP POP PUSH1 0x40 MLOAD DUP1 SWAP2 SUB SWAP1 RETURN JUMPDEST PUSH2 0x277 PUSH2 0x489 JUMP JUMPDEST PUSH1 0x40 MLOAD DUP1 DUP3 PUSH1 0xFF AND PUSH1 0xFF AND DUP2 MSTORE PUSH1 0x20 ADD SWAP2 POP POP PUSH1 0x40 MLOAD DUP1 SWAP2 SUB SWAP1 RETURN JUMPDEST PUSH2 0x29B PUSH2 0x48E JUMP JUMPDEST PUSH1 0x40 MLOAD DUP1 DUP3 PUSH1 0xFF AND PUSH1 0xFF AND DUP2 MSTORE PUSH1 0x20 ADD SWAP2 POP POP PUSH1 0x40 MLOAD DUP1 SWAP2 SUB SWAP1 RETURN JUMPDEST PUSH2 0x2BF PUSH2 0x493 JUMP JUMPDEST PUSH1 0x40 MLOAD DUP1 DUP3 DUP2 MSTORE PUSH1 0x20 ADD SWAP2 POP POP PUSH1 0x40 MLOAD DUP1 SWAP2 SUB SWAP1 RETURN JUMPDEST PUSH2 0x2DD PUSH2 0x499 JUMP JUMPDEST PUSH1 0x40 MLOAD DUP1 DUP3 DUP2 MSTORE PUSH1 0x20 ADD SWAP2 POP POP PUSH1 0x40 MLOAD DUP1 SWAP2 SUB SWAP1 RETURN JUMPDEST PUSH2 0x2FB PUSH2 0x4A1 JUMP JUMPDEST PUSH1 0x40 MLOAD DUP1 DUP3 DUP2 MSTORE PUSH1 0x20 ADD SWAP2 POP POP PUSH1 0x40 MLOAD DUP1 SWAP2 SUB SWAP1 RETURN JUMPDEST PUSH2 0x319 PUSH2 0x4A7 JUMP JUMPDEST PUSH1 0x40 MLOAD DUP1 DUP3 DUP2 MSTORE PUSH1 0x20 ADD SWAP2 POP POP PUSH1 0x40 MLOAD DUP1 SWAP2 SUB SWAP1 RETURN JUMPDEST PUSH2 0x337 PUSH2 0x4AD JUMP JUMPDEST PUSH1 0x40 MLOAD DUP1 DUP3 DUP2 MSTORE PUSH1 0x20 ADD SWAP2 POP POP PUSH1 0x40 MLOAD DUP1 SWAP2 SUB SWAP1 RETURN JUMPDEST PUSH2 0x355 PUSH2 0x4B3 JUMP JUMPDEST PUSH1 0x40 MLOAD DUP1 DUP3 DUP2 MSTORE PUSH1 0x20 ADD SWAP2 POP POP PUSH1 0x40 MLOAD DUP1 SWAP2 SUB SWAP1 RETURN JUMPDEST PUSH2 0x373 PUSH2 0x4BA JUMP JUMPDEST PUSH1 0x40 MLOAD DUP1 DUP3 ISZERO ISZERO ISZERO ISZERO DUP2 MSTORE PUSH1 0x20 ADD SWAP2 POP POP PUSH1 0x40 MLOAD DUP1 SWAP2 SUB SWAP1 RETURN JUMPDEST PUSH2 0x395 PUSH2 0x4CD JUMP JUMPDEST PUSH1 0x40 MLOAD DUP1 DUP3 DUP2 MSTORE PUSH1 0x20 ADD SWAP2 POP POP PUSH1 0x40 MLOAD DUP1 SWAP2 SUB SWAP1 RETURN JUMPDEST PUSH2 0x3D7 PUSH1 0x4 DUP1 CALLDATASIZE SUB PUSH1 0x20 DUP2 LT ISZERO PUSH2 0x3C1 JUMPI PUSH1 0x0 DUP1 REVERT JUMPDEST DUP2 ADD SWAP1 DUP1 DUP1 CALLDATALOAD SWAP1 PUSH1 0x20 ADD SWAP1 SWAP3 SWAP2 SWAP1 POP POP POP PUSH2 0x4D3 JUMP JUMPDEST PUSH1 0x40 MLOAD DUP1 DUP3 DUP2 MSTORE PUSH1 0x20 ADD SWAP2 POP POP PUSH1 0x40 MLOAD DUP1 SWAP2 SUB SWAP1 RETURN JUMPDEST PUSH2 0x3F5 PUSH2 0x4EB JUMP JUMPDEST PUSH1 0x40 MLOAD DUP1 DUP3 DUP2 MSTORE PUSH1 0x20 ADD SWAP2 POP POP PUSH1 0x40 MLOAD DUP1 SWAP2 SUB SWAP1 RETURN JUMPDEST PUSH2 0x413 PUSH2 0x4F1 JUMP JUMPDEST PUSH1 0x40 MLOAD DUP1 DUP3 DUP2 MSTORE PUSH1 0x20 ADD SWAP2 POP POP PUSH1 0x40 MLOAD DUP1 SWAP2 SUB SWAP1 RETURN JUMPDEST PUSH1 0x7 DUP2 PUSH1 0x3 DUP2 LT PUSH2 0x436 JUMPI INVALID JUMPDEST ADD PUSH1 0x0 SWAP2 POP SWAP1 POP SLOAD DUP2 JUMP JUMPDEST PUSH1 0x64 DUP2 JUMP JUMPDEST PUSH1 0x1C SLOAD DUP2 JUMP JUMPDEST PUSH3 0x186A0 DUP2 JUMP JUMPDEST PUSH1 0xA DUP2 PUSH1 0xF DUP2 LT PUSH2 0x460 JUMPI INVALID JUMPDEST ADD PUSH1 0x0 SWAP2 POP SWAP1 POP SLOAD DUP2 JUMP JUMPDEST PUSH1 0x19 SLOAD DUP2 JUMP JUMPDEST PUSH1 0x4 DUP2 PUSH1 0x3 DUP2 LT PUSH2 0x47E JUMPI INVALID JUMPDEST ADD PUSH1 0x0 SWAP2 POP SWAP1 POP SLOAD DUP2 JUMP JUMPDEST PUSH1 0x21 DUP2 JUMP JUMPDEST PUSH1 0x3 DUP2 JUMP JUMPDEST PUSH1 0x1A SLOAD DUP2 JUMP JUMPDEST PUSH4 0x5FD753C0 DUP2 JUMP JUMPDEST PUSH2 0x1388 DUP2 JUMP JUMPDEST PUSH2 0x3840 DUP2 JUMP JUMPDEST PUSH1 0x1E SLOAD DUP2 JUMP JUMPDEST PUSH3 0x15180 DUP2 JUMP JUMPDEST PUSH1 0x1D PUSH1 0x0 SWAP1 SLOAD SWAP1 PUSH2 0x100 EXP SWAP1 DIV PUSH1 0xFF AND DUP2 JUMP JUMPDEST PUSH1 0x1B SLOAD DUP2 JUMP JUMPDEST PUSH1 0x1 DUP2 PUSH1 0x3 DUP2 LT PUSH2 0x4E0 JUMPI INVALID JUMPDEST ADD PUSH1 0x0 SWAP2 POP SWAP1 POP SLOAD DUP2 JUMP JUMPDEST PUSH1 0x0 SLOAD DUP2 JUMP JUMPDEST PUSH4 0x5FD753C0 DUP2 JUMP INVALID LOG2 PUSH6 0x627A7A723158 KECCAK256 0x27 0xE8 0xDA ADDMOD 0x5D SWAP10 CALLER 0xF8 POP 0xC 0xD8 DIFFICULTY 0xC9 SIGNEXTEND PUSH16 0xD39E32ADAB98E26E93D5D0F4E6F8D330 0xEB PUSH5 0x736F6C6343 STOP SDIV 0xF STOP ORIGIN "
		},
		"gasEstimates": {
			"creation": {
				"codeDepositCost": "265200",
				"executionCost": "infinite",
				"totalCost": "infinite"
			},
			"external": {
				"CREATE_TIME()": "228",
				"DEPOSITS_TYPES_COUNT()": "306",
				"LEADER_PERCENT()": "1028",
				"LUCKY_PERCENT()": "1073",
				"MAXIMAL_DEPOSIT()": "295",
				"MINIMAL_DEPOSIT()": "251",
				"MODEL_REWARDS_PERCENTS(uint256)": "1241",
				"ONE_DAY()": "316",
				"RECOMMEND_AUTO()": "1075",
				"RECOMMEND_PERCENT()": "1049",
				"START_TIME()": "315",
				"STEP()": "250",
				"TRON1_PERCENT()": "1116",
				"WITHDRAW_DURATION()": "272",
				"WITHDRAW_MUL()": "284",
				"earn_percent(uint256)": "1174",
				"freeze_cycle()": "1094",
				"luckyPercentLimit(uint256)": "1153",
				"luckyPrizeLimit()": "1093",
				"overLimit(uint256)": "1195"
			}
		},
		"methodIdentifiers": {
			"CREATE_TIME()": "47703bbf",
			"DEPOSITS_TYPES_COUNT()": "354852e8",
			"LEADER_PERCENT()": "2a5414c7",
			"LUCKY_PERCENT()": "19c09953",
			"MAXIMAL_DEPOSIT()": "1f7d6e40",
			"MINIMAL_DEPOSIT()": "1810847c",
			"MODEL_REWARDS_PERCENTS(uint256)": "2152d77e",
			"ONE_DAY()": "863e76db",
			"RECOMMEND_AUTO()": "93eea5fb",
			"RECOMMEND_PERCENT()": "9b52b0e2",
			"START_TIME()": "ddaa26ad",
			"STEP()": "53d0f255",
			"TRON1_PERCENT()": "3fd90955",
			"WITHDRAW_DURATION()": "77913322",
			"WITHDRAW_MUL()": "342adbaf",
			"earn_percent(uint256)": "2ecdbacc",
			"freeze_cycle()": "847ce75f",
			"luckyPercentLimit(uint256)": "0828f8af",
			"luckyPrizeLimit()": "bdb3d2da",
			"overLimit(uint256)": "b1c2340a"
		}
	},
	"abi": [
		{
			"constant": true,
			"inputs": [],
			"name": "CREATE_TIME",
			"outputs": [
				{
					"internalType": "uint256",
					"name": "",
					"type": "uint256"
				}
			],
			"payable": false,
			"stateMutability": "view",
			"type": "function"
		},
		{
			"constant": true,
			"inputs": [],
			"name": "DEPOSITS_TYPES_COUNT",
			"outputs": [
				{
					"internalType": "uint8",
					"name": "",
					"type": "uint8"
				}
			],
			"payable": false,
			"stateMutability": "view",
			"type": "function"
		},
		{
			"constant": true,
			"inputs": [],
			"name": "LEADER_PERCENT",
			"outputs": [
				{
					"internalType": "uint256",
					"name": "",
					"type": "uint256"
				}
			],
			"payable": false,
			"stateMutability": "view",
			"type": "function"
		},
		{
			"constant": true,
			"inputs": [],
			"name": "LUCKY_PERCENT",
			"outputs": [
				{
					"internalType": "uint256",
					"name": "",
					"type": "uint256"
				}
			],
			"payable": false,
			"stateMutability": "view",
			"type": "function"
		},
		{
			"constant": true,
			"inputs": [],
			"name": "MAXIMAL_DEPOSIT",
			"outputs": [
				{
					"internalType": "uint256",
					"name": "",
					"type": "uint256"
				}
			],
			"payable": false,
			"stateMutability": "view",
			"type": "function"
		},
		{
			"constant": true,
			"inputs": [],
			"name": "MINIMAL_DEPOSIT",
			"outputs": [
				{
					"internalType": "uint256",
					"name": "",
					"type": "uint256"
				}
			],
			"payable": false,
			"stateMutability": "view",
			"type": "function"
		},
		{
			"constant": true,
			"inputs": [
				{
					"internalType": "uint256",
					"name": "",
					"type": "uint256"
				}
			],
			"name": "MODEL_REWARDS_PERCENTS",
			"outputs": [
				{
					"internalType": "uint256",
					"name": "",
					"type": "uint256"
				}
			],
			"payable": false,
			"stateMutability": "view",
			"type": "function"
		},
		{
			"constant": true,
			"inputs": [],
			"name": "ONE_DAY",
			"outputs": [
				{
					"internalType": "uint256",
					"name": "",
					"type": "uint256"
				}
			],
			"payable": false,
			"stateMutability": "view",
			"type": "function"
		},
		{
			"constant": true,
			"inputs": [],
			"name": "RECOMMEND_AUTO",
			"outputs": [
				{
					"internalType": "bool",
					"name": "",
					"type": "bool"
				}
			],
			"payable": false,
			"stateMutability": "view",
			"type": "function"
		},
		{
			"constant": true,
			"inputs": [],
			"name": "RECOMMEND_PERCENT",
			"outputs": [
				{
					"internalType": "uint256",
					"name": "",
					"type": "uint256"
				}
			],
			"payable": false,
			"stateMutability": "view",
			"type": "function"
		},
		{
			"constant": true,
			"inputs": [],
			"name": "START_TIME",
			"outputs": [
				{
					"internalType": "uint256",
					"name": "",
					"type": "uint256"
				}
			],
			"payable": false,
			"stateMutability": "view",
			"type": "function"
		},
		{
			"constant": true,
			"inputs": [],
			"name": "STEP",
			"outputs": [
				{
					"internalType": "uint256",
					"name": "",
					"type": "uint256"
				}
			],
			"payable": false,
			"stateMutability": "view",
			"type": "function"
		},
		{
			"constant": true,
			"inputs": [],
			"name": "TRON1_PERCENT",
			"outputs": [
				{
					"internalType": "uint256",
					"name": "",
					"type": "uint256"
				}
			],
			"payable": false,
			"stateMutability": "view",
			"type": "function"
		},
		{
			"constant": true,
			"inputs": [],
			"name": "WITHDRAW_DURATION",
			"outputs": [
				{
					"internalType": "uint256",
					"name": "",
					"type": "uint256"
				}
			],
			"payable": false,
			"stateMutability": "view",
			"type": "function"
		},
		{
			"constant": true,
			"inputs": [],
			"name": "WITHDRAW_MUL",
			"outputs": [
				{
					"internalType": "uint8",
					"name": "",
					"type": "uint8"
				}
			],
			"payable": false,
			"stateMutability": "view",
			"type": "function"
		},
		{
			"constant": true,
			"inputs": [
				{
					"internalType": "uint256",
					"name": "",
					"type": "uint256"
				}
			],
			"name": "earn_percent",
			"outputs": [
				{
					"internalType": "uint256",
					"name": "",
					"type": "uint256"
				}
			],
			"payable": false,
			"stateMutability": "view",
			"type": "function"
		},
		{
			"constant": true,
			"inputs": [],
			"name": "freeze_cycle",
			"outputs": [
				{
					"internalType": "uint256",
					"name": "",
					"type": "uint256"
				}
			],
			"payable": false,
			"stateMutability": "view",
			"type": "function"
		},
		{
			"constant": true,
			"inputs": [
				{
					"internalType": "uint256",
					"name": "",
					"type": "uint256"
				}
			],
			"name": "luckyPercentLimit",
			"outputs": [
				{
					"internalType": "uint256",
					"name": "",
					"type": "uint256"
				}
			],
			"payable": false,
			"stateMutability": "view",
			"type": "function"
		},
		{
			"constant": true,
			"inputs": [],
			"name": "luckyPrizeLimit",
			"outputs": [
				{
					"internalType": "uint256",
					"name": "",
					"type": "uint256"
				}
			],
			"payable": false,
			"stateMutability": "view",
			"type": "function"
		},
		{
			"constant": true,
			"inputs": [
				{
					"internalType": "uint256",
					"name": "",
					"type": "uint256"
				}
			],
			"name": "overLimit",
			"outputs": [
				{
					"internalType": "uint256",
					"name": "",
					"type": "uint256"
				}
			],
			"payable": false,
			"stateMutability": "view",
			"type": "function"
		}
	]
}